{
    "contractName": "w3Mart",
    "abi": [
        {
            "anonymous": false,
            "inputs": [
                {
                    "indexed": true,
                    "internalType": "address",
                    "name": "previousOwner",
                    "type": "address"
                },
                {
                    "indexed": true,
                    "internalType": "address",
                    "name": "newOwner",
                    "type": "address"
                }
            ],
            "name": "OwnershipTransferred",
            "type": "event"
        },
        {
            "inputs": [
                {
                    "internalType": "string",
                    "name": "_user",
                    "type": "string"
                },
                {
                    "internalType": "uint256",
                    "name": "_price",
                    "type": "uint256"
                },
                {
                    "internalType": "string[]",
                    "name": "_products",
                    "type": "string[]"
                },
                {
                    "internalType": "string[]",
                    "name": "_quantity",
                    "type": "string[]"
                },
                {
                    "internalType": "string[]",
                    "name": "_prices",
                    "type": "string[]"
                },
                {
                    "internalType": "string[]",
                    "name": "_seller",
                    "type": "string[]"
                }
            ],
            "name": "addReceipt",
            "outputs": [],
            "stateMutability": "payable",
            "type": "function"
        },
        {
            "inputs": [],
            "name": "getHistory",
            "outputs": [
                {
                    "components": [
                        {
                            "internalType": "string",
                            "name": "user",
                            "type": "string"
                        },
                        {
                            "internalType": "uint256",
                            "name": "price",
                            "type": "uint256"
                        },
                        {
                            "internalType": "string[]",
                            "name": "products",
                            "type": "string[]"
                        },
                        {
                            "internalType": "string[]",
                            "name": "quantity",
                            "type": "string[]"
                        },
                        {
                            "internalType": "string[]",
                            "name": "prices",
                            "type": "string[]"
                        },
                        {
                            "internalType": "string[]",
                            "name": "seller",
                            "type": "string[]"
                        },
                        {
                            "internalType": "uint256",
                            "name": "date_and_time",
                            "type": "uint256"
                        }
                    ],
                    "internalType": "struct w3Mart.List[]",
                    "name": "",
                    "type": "tuple[]"
                }
            ],
            "stateMutability": "view",
            "type": "function"
        },
        {
            "inputs": [],
            "name": "owner",
            "outputs": [
                {
                    "internalType": "address",
                    "name": "",
                    "type": "address"
                }
            ],
            "stateMutability": "view",
            "type": "function"
        },
        {
            "inputs": [],
            "name": "renounceOwnership",
            "outputs": [],
            "stateMutability": "nonpayable",
            "type": "function"
        },
        {
            "inputs": [
                {
                    "internalType": "address",
                    "name": "newOwner",
                    "type": "address"
                }
            ],
            "name": "transferOwnership",
            "outputs": [],
            "stateMutability": "nonpayable",
            "type": "function"
        }
    ],
    "bytecode": "608060405234801561001057600080fd5b5061001a3361001f565b61006f565b600080546001600160a01b038381166001600160a01b0319831681178455604051919092169283917f8be0079c531659141344cd1fd0a4f28419497f9722a3daafe3b4186f6b6457e09190a35050565b610e3d8061007e6000396000f3fe60806040526004361061004a5760003560e01c8063715018a61461004f5780638da5cb5b146100665780638dfd2a4514610093578063aa15efc8146100a6578063f2fde38b146100c8575b600080fd5b34801561005b57600080fd5b506100646100e8565b005b34801561007257600080fd5b506000546040516001600160a01b0390911681526020015b60405180910390f35b6100646100a1366004610a29565b6100fc565b3480156100b257600080fd5b506100bb610285565b60405161008a9190610ba1565b3480156100d457600080fd5b506100646100e3366004610c8e565b6106ee565b6100f061076c565b6100fa60006107c6565b565b61013c6040518060e00160405280606081526020016000815260200160608152602001606081526020016060815260200160608152602001600081525090565b8681526020810186905260408101859052606081018490526080810183905260a081018290524260c0820152600180548082018255600091909152815182916007027fb10e2d527612073b26eecdfd717e6a320cf44b4afac2b0732d9fcbe2b7fa0cf6019081906101ad9082610d47565b506020828101516001830155604083015180516101d09260028501920190610816565b50606082015180516101ec916003840191602090910190610816565b5060808201518051610208916004840191602090910190610816565b5060a08201518051610224916005840191602090910190610816565b5060c0820151816006015550506102436000546001600160a01b031690565b6001600160a01b03166108fc349081150290604051600060405180830381858888f1935050505015801561027b573d6000803e3d6000fd5b5050505050505050565b60606001805480602002602001604051908101604052809291908181526020016000905b828210156106e557838290600052602060002090600702016040518060e00160405290816000820180546102dc90610cbe565b80601f016020809104026020016040519081016040528092919081815260200182805461030890610cbe565b80156103555780601f1061032a57610100808354040283529160200191610355565b820191906000526020600020905b81548152906001019060200180831161033857829003601f168201915b505050505081526020016001820154815260200160028201805480602002602001604051908101604052809291908181526020016000905b828210156104395783829060005260206000200180546103ac90610cbe565b80601f01602080910402602001604051908101604052809291908181526020018280546103d890610cbe565b80156104255780601f106103fa57610100808354040283529160200191610425565b820191906000526020600020905b81548152906001019060200180831161040857829003601f168201915b50505050508152602001906001019061038d565b50505050815260200160038201805480602002602001604051908101604052809291908181526020016000905b8282101561051257838290600052602060002001805461048590610cbe565b80601f01602080910402602001604051908101604052809291908181526020018280546104b190610cbe565b80156104fe5780601f106104d3576101008083540402835291602001916104fe565b820191906000526020600020905b8154815290600101906020018083116104e157829003601f168201915b505050505081526020019060010190610466565b50505050815260200160048201805480602002602001604051908101604052809291908181526020016000905b828210156105eb57838290600052602060002001805461055e90610cbe565b80601f016020809104026020016040519081016040528092919081815260200182805461058a90610cbe565b80156105d75780601f106105ac576101008083540402835291602001916105d7565b820191906000526020600020905b8154815290600101906020018083116105ba57829003601f168201915b50505050508152602001906001019061053f565b50505050815260200160058201805480602002602001604051908101604052809291908181526020016000905b828210156106c457838290600052602060002001805461063790610cbe565b80601f016020809104026020016040519081016040528092919081815260200182805461066390610cbe565b80156106b05780601f10610685576101008083540402835291602001916106b0565b820191906000526020600020905b81548152906001019060200180831161069357829003601f168201915b505050505081526020019060010190610618565b505050508152602001600682015481525050815260200190600101906102a9565b50505050905090565b6106f661076c565b6001600160a01b0381166107605760405162461bcd60e51b815260206004820152602660248201527f4f776e61626c653a206e6577206f776e657220697320746865207a65726f206160448201526564647265737360d01b60648201526084015b60405180910390fd5b610769816107c6565b50565b6000546001600160a01b031633146100fa5760405162461bcd60e51b815260206004820181905260248201527f4f776e61626c653a2063616c6c6572206973206e6f7420746865206f776e65726044820152606401610757565b600080546001600160a01b038381166001600160a01b0319831681178455604051919092169283917f8be0079c531659141344cd1fd0a4f28419497f9722a3daafe3b4186f6b6457e09190a35050565b82805482825590600052602060002090810192821561085c579160200282015b8281111561085c578251829061084c9082610d47565b5091602001919060010190610836565b5061086892915061086c565b5090565b808211156108685760006108808282610889565b5060010161086c565b50805461089590610cbe565b6000825580601f106108a5575050565b601f01602090049060005260206000209081019061076991905b8082111561086857600081556001016108bf565b634e487b7160e01b600052604160045260246000fd5b604051601f8201601f1916810167ffffffffffffffff81118282101715610912576109126108d3565b604052919050565b600082601f83011261092b57600080fd5b813567ffffffffffffffff811115610945576109456108d3565b610958601f8201601f19166020016108e9565b81815284602083860101111561096d57600080fd5b816020850160208301376000918101602001919091529392505050565b600082601f83011261099b57600080fd5b8135602067ffffffffffffffff808311156109b8576109b86108d3565b8260051b6109c78382016108e9565b93845285810183019383810190888611156109e157600080fd5b84880192505b85831015610a1d578235848111156109ff5760008081fd5b610a0d8a87838c010161091a565b83525091840191908401906109e7565b98975050505050505050565b60008060008060008060c08789031215610a4257600080fd5b863567ffffffffffffffff80821115610a5a57600080fd5b610a668a838b0161091a565b9750602089013596506040890135915080821115610a8357600080fd5b610a8f8a838b0161098a565b95506060890135915080821115610aa557600080fd5b610ab18a838b0161098a565b94506080890135915080821115610ac757600080fd5b610ad38a838b0161098a565b935060a0890135915080821115610ae957600080fd5b50610af689828a0161098a565b9150509295509295509295565b6000815180845260005b81811015610b2957602081850181015186830182015201610b0d565b506000602082860101526020601f19601f83011685010191505092915050565b600082825180855260208086019550808260051b84010181860160005b84811015610b9457601f19868403018952610b82838351610b03565b98840198925090830190600101610b66565b5090979650505050505050565b60006020808301818452808551808352604092508286019150828160051b87010184880160005b83811015610c8057603f19898403018552815160e08151818652610bee82870182610b03565b91505088820151898601528782015185820389870152610c0e8282610b49565b91505060608083015186830382880152610c288382610b49565b9250505060808083015186830382880152610c438382610b49565b9250505060a08083015186830382880152610c5e8382610b49565b60c0948501519790940196909652505094870194925090860190600101610bc8565b509098975050505050505050565b600060208284031215610ca057600080fd5b81356001600160a01b0381168114610cb757600080fd5b9392505050565b600181811c90821680610cd257607f821691505b602082108103610cf257634e487b7160e01b600052602260045260246000fd5b50919050565b601f821115610d4257600081815260208120601f850160051c81016020861015610d1f5750805b601f850160051c820191505b81811015610d3e57828155600101610d2b565b5050505b505050565b815167ffffffffffffffff811115610d6157610d616108d3565b610d7581610d6f8454610cbe565b84610cf8565b602080601f831160018114610daa5760008415610d925750858301515b600019600386901b1c1916600185901b178555610d3e565b600085815260208120601f198616915b82811015610dd957888601518255948401946001909101908401610dba565b5085821015610df75787850151600019600388901b60f8161c191681555b5050505050600190811b0190555056fea264697066735822122044dd936aab058940b7389e7913ee49198568dfe1fe3029a3dc7b5d7645476c5164736f6c63430008130033",
    "sourcePath": "c:/Users/satta/Desktop/FYP/Ecommerece-website-using-Blockchain-main/w3-Mart.sol",
    "compiler": {
        "name": "solc",
        "version": "0.8.19+commit.7dd6d404"
    },
    "functionHashes": {
        "addReceipt(string,uint256,string[],string[],string[],string[])": "8dfd2a45",
        "getHistory()": "aa15efc8",
        "owner()": "8da5cb5b",
        "renounceOwnership()": "715018a6",
        "transferOwnership(address)": "f2fde38b"
    },
    "gasEstimates": {
        "creation": {
            "codeDepositCost": "729000",
            "executionCost": "26601",
            "totalCost": "755601"
        },
        "external": {
            "addReceipt(string,uint256,string[],string[],string[],string[])": "infinite",
            "getHistory()": "infinite",
            "owner()": "2290",
            "renounceOwnership()": "infinite",
            "transferOwnership(address)": "28364"
        }
    }
}